:0400000006EF00F017
:1000080019EFFEF000EE80F01AECFFF08FECFEF036
:100018000DECFEF045ECFEF012EF00F057ECFEF0B0
:1000280012ECFEF0000EEF6E010E146466ECFEF0AA
:10003800020E146477ECFEF07AECFEF0010EFC621E
:10004800060084ECFEF0280EF3648EEFFFF0C80E75
:10005800F3608EEFFFF0010EF4608EEFFFF0F3CF48
:100068001DF0F4CF1CF0E8ECFEF06DECFFF016EF9D
:0200780000F096
:020000040001F9
:10FC1A009A6A916A000E1B6E1200870ED56EF28ADE
:10FC2A00F28E000E1A6E1200F2A41100F2941A2A31
:10FC3A00010E1B6234EFFEF00F0E1A622EEFFEF079
:10FC4A0000EE80F0000E1A6EF28E0600060022EF19
:10FC5A0000F0EE50F28E0600060022EF00F00F0EC2
:10FC6A001A6243EFFEF0010E1B6E00EE80F0000EEA
:10FC7A001A6EF28E0600060022EF00F0EE50110016
:10FC8A00010E146E0D0E0F6E980E106E040E126E8B
:10FC9A000F0E136E000E20EE80F0DE6E132E52EF62
:10FCAA00FEF012009EECFEF00F50C4645EEFFEF010
:10FCBA001200C46257EFFEF01050C36457EFFEF013
:10FCCA001200010E146E0F509EECFEF0C46470EF29
:10FCDA00FEF077EFFEF0C46268EFFEF01050C364E6
:10FCEA0068EFFEF0020E146EEF2A030E146E0F5028
:10FCFA009EECFEF0C4607DEFFEF066EFFEF00F0EA4
:10FD0A00116E10EE80F0000EE624112E89EFFEF03F
:10FD1A00120212000C6E0D6E92802581010EC26EC7
:10FD2A00300EC16EF60EC06EC19AC1880A0E0E6EF2
:10FD3A001200C282C2B2FED71200000E056E066E13
:10FD4A00076E00500102F3CF05F0F4CF06F002026D
:10FD5A00F3500626F45007221200000E086E096EB0
:10FD6A000A6E0B6E03C000F0A2ECFEF005C008F0AC
:10FD7A0006C009F007C00AF004C000F0A2ECFEF0C9
:10FD8A000550092606500A2207500B221200000EBF
:10FD9A00086E096E0A6E0B6E07C00BF006C002F001
:10FDAA0005C001F0A2ECFEF005C008F006C009F09B
:10FDBA0007C00AF00B500002F3500A26000E0B6E21
:10FDCA00F4500B221200000E0C6E0D6E1CC002F0D5
:10FDDA001DC001F0410E046E8A0E036EB2ECFEF0F5
:10FDEA000B500C120C3A0EC000F00AC007F009C002
:10FDFA0006F008C005F0CCECFEF00B500C120AC05D
:10FE0A0007F009C006F008C005F0CCECFEF00B5074
:10FE1A000D120D3A0AC007F009C006F008C005F035
:10FE2A00CCECFEF00B500D1212008A6AC00E936ED3
:10FE3A00280EEAECFFF0300EB9ECFFF00A0EF1ECF6
:10FE4A00FFF0280EB9ECFFF00A0EF1ECFFF0280ED5
:10FE5A00B9ECFFF00A0EF1ECFFF00F0EB9ECFFF06F
:10FE6A000A0EF1ECFFF0010EB9ECFFF0020EEAEC1B
:10FE7A00FFF0060EB9ECFFF00A0EF1ECFFF01200EB
:10FE8A00010EB9ECFFF0030EEAECFFF012001E6E51
:10FE9A001E3851ECFFF01E500F0B186E000E18643E
:10FEAA0012000A0E1860070F260F1824C7ECFFF07D
:10FEBA0012001E6E1E3863ECFFF01E500F0B186EF8
:10FECA000A0E1860070F260F1824C7ECFFF012005D
:10FEDA0045ECFFF0200EC7ECFFF0200EC7ECFFF058
:10FEEA00200EC7ECFFF0200EC7ECFFF0480EC7EC5F
:10FEFA00FFF0520EC7ECFFF03A0EC7ECFFF0200EEF
:10FF0A00C7ECFFF00C504CECFFF00D505EECFFF02C
:10FF1A00120045ECFFF0200EC7ECFFF0200EC7ECF4
:10FF2A00FFF0200EC7ECFFF0410EC7ECFFF0640EA5
:10FF3A00C7ECFFF06A0EC7ECFFF0750EC7ECFFF0D6
:10FF4A00730EC7ECFFF0740EC7ECFFF0200EC7EC7F
:10FF5A00FFF0460EC7ECFFF0690EC7ECFFF0740E17
:10FF6A00C7ECFFF016EF00F0186E18380F0B8A6E08
:10FF7A008A98D8ECFFF018500F0B8A6E8A98D8EC42
:10FF8A00FFF01200186E18380F0B8A6E8A88D8ECA8
:10FF9A00FFF018500F0B8A6E8A88D8ECFFF00A0E11
:10FFAA00F1ECFFF012000000000000000000000069
:10FFBA000000000000008A8A000000000000000023
:10FFCA000000000000008A9A1200176EFA0EF1EC87
:10FFDA00FFF0172EFBD71200156E153A0F0E1514E7
:10FFEA00166EF00E1516FBECFFF01200000E150649
:06FFFA00165AFDE21200A0
:020000040030CA
:0700000015137F00B98B917D
:06000800FFC0FFE0FF4015
:00000001FF
